{
  "abi": [
    {
      "inputs": [],
      "stateMutability": "nonpayable",
      "type": "constructor"
    },
    {
      "anonymous": false,
      "inputs": [
        {
          "indexed": true,
          "internalType": "address",
          "name": "owner",
          "type": "address"
        },
        {
          "indexed": true,
          "internalType": "address",
          "name": "approved",
          "type": "address"
        },
        {
          "indexed": true,
          "internalType": "uint256",
          "name": "tokenId",
          "type": "uint256"
        }
      ],
      "name": "Approval",
      "type": "event"
    },
    {
      "anonymous": false,
      "inputs": [
        {
          "indexed": true,
          "internalType": "address",
          "name": "owner",
          "type": "address"
        },
        {
          "indexed": true,
          "internalType": "address",
          "name": "operator",
          "type": "address"
        },
        {
          "indexed": false,
          "internalType": "bool",
          "name": "approved",
          "type": "bool"
        }
      ],
      "name": "ApprovalForAll",
      "type": "event"
    },
    {
      "anonymous": false,
      "inputs": [
        {
          "indexed": true,
          "internalType": "address",
          "name": "previousOwner",
          "type": "address"
        },
        {
          "indexed": true,
          "internalType": "address",
          "name": "newOwner",
          "type": "address"
        }
      ],
      "name": "OwnershipTransferred",
      "type": "event"
    },
    {
      "anonymous": false,
      "inputs": [
        {
          "indexed": true,
          "internalType": "address",
          "name": "from",
          "type": "address"
        },
        {
          "indexed": true,
          "internalType": "address",
          "name": "to",
          "type": "address"
        },
        {
          "indexed": true,
          "internalType": "uint256",
          "name": "tokenId",
          "type": "uint256"
        }
      ],
      "name": "Transfer",
      "type": "event"
    },
    {
      "anonymous": false,
      "inputs": [
        {
          "indexed": false,
          "internalType": "uint256",
          "name": "tokenId",
          "type": "uint256"
        },
        {
          "indexed": false,
          "internalType": "address",
          "name": "minter",
          "type": "address"
        }
      ],
      "name": "newVolcano",
      "type": "event"
    },
    {
      "inputs": [],
      "name": "MAX_VOLCANOS",
      "outputs": [
        {
          "internalType": "uint256",
          "name": "",
          "type": "uint256"
        }
      ],
      "stateMutability": "view",
      "type": "function"
    },
    {
      "inputs": [
        {
          "internalType": "address",
          "name": "to",
          "type": "address"
        },
        {
          "internalType": "uint256",
          "name": "tokenId",
          "type": "uint256"
        }
      ],
      "name": "approve",
      "outputs": [],
      "stateMutability": "nonpayable",
      "type": "function"
    },
    {
      "inputs": [
        {
          "internalType": "address",
          "name": "owner",
          "type": "address"
        }
      ],
      "name": "balanceOf",
      "outputs": [
        {
          "internalType": "uint256",
          "name": "",
          "type": "uint256"
        }
      ],
      "stateMutability": "view",
      "type": "function"
    },
    {
      "inputs": [
        {
          "internalType": "uint256",
          "name": "tokenId",
          "type": "uint256"
        }
      ],
      "name": "getApproved",
      "outputs": [
        {
          "internalType": "address",
          "name": "",
          "type": "address"
        }
      ],
      "stateMutability": "view",
      "type": "function"
    },
    {
      "inputs": [
        {
          "internalType": "address",
          "name": "owner",
          "type": "address"
        },
        {
          "internalType": "address",
          "name": "operator",
          "type": "address"
        }
      ],
      "name": "isApprovedForAll",
      "outputs": [
        {
          "internalType": "bool",
          "name": "",
          "type": "bool"
        }
      ],
      "stateMutability": "view",
      "type": "function"
    },
    {
      "inputs": [],
      "name": "name",
      "outputs": [
        {
          "internalType": "string",
          "name": "",
          "type": "string"
        }
      ],
      "stateMutability": "view",
      "type": "function"
    },
    {
      "inputs": [],
      "name": "owner",
      "outputs": [
        {
          "internalType": "address",
          "name": "",
          "type": "address"
        }
      ],
      "stateMutability": "view",
      "type": "function"
    },
    {
      "inputs": [
        {
          "internalType": "uint256",
          "name": "tokenId",
          "type": "uint256"
        }
      ],
      "name": "ownerOf",
      "outputs": [
        {
          "internalType": "address",
          "name": "",
          "type": "address"
        }
      ],
      "stateMutability": "view",
      "type": "function"
    },
    {
      "inputs": [],
      "name": "renounceOwnership",
      "outputs": [],
      "stateMutability": "nonpayable",
      "type": "function"
    },
    {
      "inputs": [
        {
          "internalType": "address",
          "name": "from",
          "type": "address"
        },
        {
          "internalType": "address",
          "name": "to",
          "type": "address"
        },
        {
          "internalType": "uint256",
          "name": "tokenId",
          "type": "uint256"
        }
      ],
      "name": "safeTransferFrom",
      "outputs": [],
      "stateMutability": "nonpayable",
      "type": "function"
    },
    {
      "inputs": [
        {
          "internalType": "address",
          "name": "from",
          "type": "address"
        },
        {
          "internalType": "address",
          "name": "to",
          "type": "address"
        },
        {
          "internalType": "uint256",
          "name": "tokenId",
          "type": "uint256"
        },
        {
          "internalType": "bytes",
          "name": "data",
          "type": "bytes"
        }
      ],
      "name": "safeTransferFrom",
      "outputs": [],
      "stateMutability": "nonpayable",
      "type": "function"
    },
    {
      "inputs": [
        {
          "internalType": "address",
          "name": "to",
          "type": "address"
        }
      ],
      "name": "safeVolcanoMint",
      "outputs": [],
      "stateMutability": "nonpayable",
      "type": "function"
    },
    {
      "inputs": [
        {
          "internalType": "address",
          "name": "operator",
          "type": "address"
        },
        {
          "internalType": "bool",
          "name": "approved",
          "type": "bool"
        }
      ],
      "name": "setApprovalForAll",
      "outputs": [],
      "stateMutability": "nonpayable",
      "type": "function"
    },
    {
      "inputs": [
        {
          "internalType": "bytes4",
          "name": "interfaceId",
          "type": "bytes4"
        }
      ],
      "name": "supportsInterface",
      "outputs": [
        {
          "internalType": "bool",
          "name": "",
          "type": "bool"
        }
      ],
      "stateMutability": "view",
      "type": "function"
    },
    {
      "inputs": [],
      "name": "symbol",
      "outputs": [
        {
          "internalType": "string",
          "name": "",
          "type": "string"
        }
      ],
      "stateMutability": "view",
      "type": "function"
    },
    {
      "inputs": [
        {
          "internalType": "uint256",
          "name": "tokenId",
          "type": "uint256"
        }
      ],
      "name": "tokenURI",
      "outputs": [
        {
          "internalType": "string",
          "name": "",
          "type": "string"
        }
      ],
      "stateMutability": "view",
      "type": "function"
    },
    {
      "inputs": [
        {
          "internalType": "address",
          "name": "from",
          "type": "address"
        },
        {
          "internalType": "address",
          "name": "to",
          "type": "address"
        },
        {
          "internalType": "uint256",
          "name": "tokenId",
          "type": "uint256"
        }
      ],
      "name": "transferFrom",
      "outputs": [],
      "stateMutability": "nonpayable",
      "type": "function"
    },
    {
      "inputs": [
        {
          "internalType": "address",
          "name": "newOwner",
          "type": "address"
        }
      ],
      "name": "transferOwnership",
      "outputs": [],
      "stateMutability": "nonpayable",
      "type": "function"
    }
  ],
  "bytecode": {
    "object": "0x608060405260646008553480156200001657600080fd5b5060405180604001604052806008815260200167566f6c63616e6f7360c01b815250604051806040016040528060048152602001632b2621a760e11b815250816000908162000066919062000193565b50600162000075828262000193565b505050620000926200008c6200009860201b60201c565b6200009c565b6200025f565b3390565b600680546001600160a01b038381166001600160a01b0319831681179093556040519116919082907f8be0079c531659141344cd1fd0a4f28419497f9722a3daafe3b4186f6b6457e090600090a35050565b634e487b7160e01b600052604160045260246000fd5b600181811c908216806200011957607f821691505b6020821081036200013a57634e487b7160e01b600052602260045260246000fd5b50919050565b601f8211156200018e57600081815260208120601f850160051c81016020861015620001695750805b601f850160051c820191505b818110156200018a5782815560010162000175565b5050505b505050565b81516001600160401b03811115620001af57620001af620000ee565b620001c781620001c0845462000104565b8462000140565b602080601f831160018114620001ff5760008415620001e65750858301515b600019600386901b1c1916600185901b1785556200018a565b600085815260208120601f198616915b8281101562000230578886015182559484019460019091019084016200020f565b50858210156200024f5787850151600019600388901b60f8161c191681555b5050505050600190811b01905550565b6115d2806200026f6000396000f3fe608060405234801561001057600080fd5b50600436106101165760003560e01c806370a08231116100a2578063a22cb46511610071578063a22cb4651461022f578063b88d4fde14610242578063c87b56dd14610255578063e985e9c514610268578063f2fde38b1461027b57600080fd5b806370a08231146101fb578063715018a61461020e5780638da5cb5b1461021657806395d89b411461022757600080fd5b806320216f76116100e957806320216f761461019857806323b872dd146101ab57806342842e0e146101be5780635c9b6ae3146101d15780636352211e146101e857600080fd5b806301ffc9a71461011b57806306fdde0314610143578063081812fc14610158578063095ea7b314610183575b600080fd5b61012e610129366004611122565b61028e565b60405190151581526020015b60405180910390f35b61014b6102e0565b60405161013a919061118f565b61016b6101663660046111a2565b610372565b6040516001600160a01b03909116815260200161013a565b6101966101913660046111d7565b610399565b005b6101966101a6366004611201565b6104b3565b6101966101b936600461121c565b610535565b6101966101cc36600461121c565b610566565b6101da60085481565b60405190815260200161013a565b61016b6101f63660046111a2565b610581565b6101da610209366004611201565b6105e1565b610196610667565b6006546001600160a01b031661016b565b61014b61067b565b61019661023d366004611258565b61068a565b6101966102503660046112aa565b610695565b61014b6102633660046111a2565b6106cd565b61012e610276366004611386565b610741565b610196610289366004611201565b61076f565b60006001600160e01b031982166380ac58cd60e01b14806102bf57506001600160e01b03198216635b5e139f60e01b145b806102da57506301ffc9a760e01b6001600160e01b03198316145b92915050565b6060600080546102ef906113b9565b80601f016020809104026020016040519081016040528092919081815260200182805461031b906113b9565b80156103685780601f1061033d57610100808354040283529160200191610368565b820191906000526020600020905b81548152906001019060200180831161034b57829003601f168201915b5050505050905090565b600061037d826107e8565b506000908152600460205260409020546001600160a01b031690565b60006103a482610581565b9050806001600160a01b0316836001600160a01b0316036104165760405162461bcd60e51b815260206004820152602160248201527f4552433732313a20617070726f76616c20746f2063757272656e74206f776e656044820152603960f91b60648201526084015b60405180910390fd5b336001600160a01b038216148061043257506104328133610741565b6104a45760405162461bcd60e51b815260206004820152603d60248201527f4552433732313a20617070726f76652063616c6c6572206973206e6f7420746f60448201527f6b656e206f776e6572206f7220617070726f76656420666f7220616c6c000000606482015260840161040d565b6104ae8383610847565b505050565b6104bb6108b5565b60006104c660075490565b905060085481106105195760405162461bcd60e51b815260206004820152601760248201527f566f6c63616e6f65732061726520736f6c64206f757421000000000000000000604482015260640161040d565b610527600780546001019055565b610531828261090f565b5050565b61053f3382610929565b61055b5760405162461bcd60e51b815260040161040d906113f3565b6104ae838383610988565b6104ae83838360405180602001604052806000815250610695565b6000818152600260205260408120546001600160a01b0316806102da5760405162461bcd60e51b8152602060048201526018602482015277115490cdcc8c4e881a5b9d985b1a59081d1bdad95b88125160421b604482015260640161040d565b60006001600160a01b03821661064b5760405162461bcd60e51b815260206004820152602960248201527f4552433732313a2061646472657373207a65726f206973206e6f7420612076616044820152683634b21037bbb732b960b91b606482015260840161040d565b506001600160a01b031660009081526003602052604090205490565b61066f6108b5565b6106796000610af9565b565b6060600180546102ef906113b9565b610531338383610b4b565b61069f3383610929565b6106bb5760405162461bcd60e51b815260040161040d906113f3565b6106c784848484610c19565b50505050565b60606106d8826107e8565b60006106ef60408051602081019091526000815290565b9050600081511161070f576040518060200160405280600081525061073a565b8061071984610c4c565b60405160200161072a929190611440565b6040516020818303038152906040525b9392505050565b6001600160a01b03918216600090815260056020908152604080832093909416825291909152205460ff1690565b6107776108b5565b6001600160a01b0381166107dc5760405162461bcd60e51b815260206004820152602660248201527f4f776e61626c653a206e6577206f776e657220697320746865207a65726f206160448201526564647265737360d01b606482015260840161040d565b6107e581610af9565b50565b6000818152600260205260409020546001600160a01b03166107e55760405162461bcd60e51b8152602060048201526018602482015277115490cdcc8c4e881a5b9d985b1a59081d1bdad95b88125160421b604482015260640161040d565b600081815260046020526040902080546001600160a01b0319166001600160a01b038416908117909155819061087c82610581565b6001600160a01b03167f8c5be1e5ebec7d5bd14f71427d1e84f3dd0314c0f7b2291e5b200ac8c7c3b92560405160405180910390a45050565b6006546001600160a01b031633146106795760405162461bcd60e51b815260206004820181905260248201527f4f776e61626c653a2063616c6c6572206973206e6f7420746865206f776e6572604482015260640161040d565b610531828260405180602001604052806000815250610cdf565b60008061093583610581565b9050806001600160a01b0316846001600160a01b0316148061095c575061095c8185610741565b806109805750836001600160a01b031661097584610372565b6001600160a01b0316145b949350505050565b826001600160a01b031661099b82610581565b6001600160a01b0316146109c15760405162461bcd60e51b815260040161040d9061146f565b6001600160a01b038216610a235760405162461bcd60e51b8152602060048201526024808201527f4552433732313a207472616e7366657220746f20746865207a65726f206164646044820152637265737360e01b606482015260840161040d565b610a308383836001610d12565b826001600160a01b0316610a4382610581565b6001600160a01b031614610a695760405162461bcd60e51b815260040161040d9061146f565b600081815260046020908152604080832080546001600160a01b03199081169091556001600160a01b0387811680865260038552838620805460001901905590871680865283862080546001019055868652600290945282852080549092168417909155905184937fddf252ad1be2c89b69c2b068fc378daa952ba7f163c4a11628f55a4df523b3ef91a4505050565b600680546001600160a01b038381166001600160a01b0319831681179093556040519116919082907f8be0079c531659141344cd1fd0a4f28419497f9722a3daafe3b4186f6b6457e090600090a35050565b816001600160a01b0316836001600160a01b031603610bac5760405162461bcd60e51b815260206004820152601960248201527f4552433732313a20617070726f766520746f2063616c6c657200000000000000604482015260640161040d565b6001600160a01b03838116600081815260056020908152604080832094871680845294825291829020805460ff191686151590811790915591519182527f17307eab39ab6107e8899845ad3d59bd9653f200f220920489ca2b5937696c31910160405180910390a3505050565b610c24848484610988565b610c3084848484610d9a565b6106c75760405162461bcd60e51b815260040161040d906114b4565b60606000610c5983610e9b565b600101905060008167ffffffffffffffff811115610c7957610c79611294565b6040519080825280601f01601f191660200182016040528015610ca3576020820181803683370190505b5090508181016020015b600019016f181899199a1a9b1b9c1cb0b131b232b360811b600a86061a8153600a8504945084610cad57509392505050565b610ce98383610f73565b610cf66000848484610d9a565b6104ae5760405162461bcd60e51b815260040161040d906114b4565b60018111156106c7576001600160a01b03841615610d58576001600160a01b03841660009081526003602052604081208054839290610d5290849061151c565b90915550505b6001600160a01b038316156106c7576001600160a01b03831660009081526003602052604081208054839290610d8f90849061152f565b909155505050505050565b60006001600160a01b0384163b15610e9057604051630a85bd0160e11b81526001600160a01b0385169063150b7a0290610dde903390899088908890600401611542565b6020604051808303816000875af1925050508015610e19575060408051601f3d908101601f19168201909252610e169181019061157f565b60015b610e76573d808015610e47576040519150601f19603f3d011682016040523d82523d6000602084013e610e4c565b606091505b508051600003610e6e5760405162461bcd60e51b815260040161040d906114b4565b805181602001fd5b6001600160e01b031916630a85bd0160e11b149050610980565b506001949350505050565b60008072184f03e93ff9f4daa797ed6e38ed64bf6a1f0160401b8310610eda5772184f03e93ff9f4daa797ed6e38ed64bf6a1f0160401b830492506040015b6d04ee2d6d415b85acef81000000008310610f06576d04ee2d6d415b85acef8100000000830492506020015b662386f26fc100008310610f2457662386f26fc10000830492506010015b6305f5e1008310610f3c576305f5e100830492506008015b6127108310610f5057612710830492506004015b60648310610f62576064830492506002015b600a83106102da5760010192915050565b6001600160a01b038216610fc95760405162461bcd60e51b815260206004820181905260248201527f4552433732313a206d696e7420746f20746865207a65726f2061646472657373604482015260640161040d565b6000818152600260205260409020546001600160a01b03161561102e5760405162461bcd60e51b815260206004820152601c60248201527f4552433732313a20746f6b656e20616c7265616479206d696e74656400000000604482015260640161040d565b61103c600083836001610d12565b6000818152600260205260409020546001600160a01b0316156110a15760405162461bcd60e51b815260206004820152601c60248201527f4552433732313a20746f6b656e20616c7265616479206d696e74656400000000604482015260640161040d565b6001600160a01b038216600081815260036020908152604080832080546001019055848352600290915280822080546001600160a01b0319168417905551839291907fddf252ad1be2c89b69c2b068fc378daa952ba7f163c4a11628f55a4df523b3ef908290a45050565b6001600160e01b0319811681146107e557600080fd5b60006020828403121561113457600080fd5b813561073a8161110c565b60005b8381101561115a578181015183820152602001611142565b50506000910152565b6000815180845261117b81602086016020860161113f565b601f01601f19169290920160200192915050565b60208152600061073a6020830184611163565b6000602082840312156111b457600080fd5b5035919050565b80356001600160a01b03811681146111d257600080fd5b919050565b600080604083850312156111ea57600080fd5b6111f3836111bb565b946020939093013593505050565b60006020828403121561121357600080fd5b61073a826111bb565b60008060006060848603121561123157600080fd5b61123a846111bb565b9250611248602085016111bb565b9150604084013590509250925092565b6000806040838503121561126b57600080fd5b611274836111bb565b91506020830135801515811461128957600080fd5b809150509250929050565b634e487b7160e01b600052604160045260246000fd5b600080600080608085870312156112c057600080fd5b6112c9856111bb565b93506112d7602086016111bb565b925060408501359150606085013567ffffffffffffffff808211156112fb57600080fd5b818701915087601f83011261130f57600080fd5b81358181111561132157611321611294565b604051601f8201601f19908116603f0116810190838211818310171561134957611349611294565b816040528281528a602084870101111561136257600080fd5b82602086016020830137600060208483010152809550505050505092959194509250565b6000806040838503121561139957600080fd5b6113a2836111bb565b91506113b0602084016111bb565b90509250929050565b600181811c908216806113cd57607f821691505b6020821081036113ed57634e487b7160e01b600052602260045260246000fd5b50919050565b6020808252602d908201527f4552433732313a2063616c6c6572206973206e6f7420746f6b656e206f776e6560408201526c1c881bdc88185c1c1c9bdd9959609a1b606082015260800190565b6000835161145281846020880161113f565b83519083019061146681836020880161113f565b01949350505050565b60208082526025908201527f4552433732313a207472616e736665722066726f6d20696e636f72726563742060408201526437bbb732b960d91b606082015260800190565b60208082526032908201527f4552433732313a207472616e7366657220746f206e6f6e20455243373231526560408201527131b2b4bb32b91034b6b83632b6b2b73a32b960711b606082015260800190565b634e487b7160e01b600052601160045260246000fd5b818103818111156102da576102da611506565b808201808211156102da576102da611506565b6001600160a01b038581168252841660208201526040810183905260806060820181905260009061157590830184611163565b9695505050505050565b60006020828403121561159157600080fd5b815161073a8161110c56fea2646970667358221220fa24ca684037d0e7bd87d00c0c2de9613f5e74a8c0a5d79ae40f13fc412f400b64736f6c63430008110033",
    "linkReferences": {}
  },
  "methodIdentifiers": {
    "MAX_VOLCANOS()": "5c9b6ae3",
    "approve(address,uint256)": "095ea7b3",
    "balanceOf(address)": "70a08231",
    "getApproved(uint256)": "081812fc",
    "isApprovedForAll(address,address)": "e985e9c5",
    "name()": "06fdde03",
    "owner()": "8da5cb5b",
    "ownerOf(uint256)": "6352211e",
    "renounceOwnership()": "715018a6",
    "safeTransferFrom(address,address,uint256)": "42842e0e",
    "safeTransferFrom(address,address,uint256,bytes)": "b88d4fde",
    "safeVolcanoMint(address)": "20216f76",
    "setApprovalForAll(address,bool)": "a22cb465",
    "supportsInterface(bytes4)": "01ffc9a7",
    "symbol()": "95d89b41",
    "tokenURI(uint256)": "c87b56dd",
    "transferFrom(address,address,uint256)": "23b872dd",
    "transferOwnership(address)": "f2fde38b"
  },
  "id": 12
}