{
  "abi": [
    {
      "inputs": [],
      "stateMutability": "nonpayable",
      "type": "constructor"
    },
    {
      "anonymous": false,
      "inputs": [
        {
          "indexed": false,
          "internalType": "uint256",
          "name": "totalSupplyWasChanged",
          "type": "uint256"
        }
      ],
      "name": "totalSupplyChanged",
      "type": "event"
    },
    {
      "anonymous": false,
      "inputs": [
        {
          "indexed": false,
          "internalType": "uint256",
          "name": "amountTransferred",
          "type": "uint256"
        },
        {
          "indexed": false,
          "internalType": "address",
          "name": "recipient",
          "type": "address"
        }
      ],
      "name": "transferOccurred",
      "type": "event"
    },
    {
      "inputs": [
        {
          "internalType": "address",
          "name": "",
          "type": "address"
        }
      ],
      "name": "balances",
      "outputs": [
        {
          "internalType": "uint256",
          "name": "",
          "type": "uint256"
        }
      ],
      "stateMutability": "view",
      "type": "function"
    },
    {
      "inputs": [],
      "name": "changeTotalSupply",
      "outputs": [],
      "stateMutability": "nonpayable",
      "type": "function"
    },
    {
      "inputs": [],
      "name": "owner",
      "outputs": [
        {
          "internalType": "address payable",
          "name": "",
          "type": "address"
        }
      ],
      "stateMutability": "view",
      "type": "function"
    },
    {
      "inputs": [
        {
          "internalType": "address",
          "name": "",
          "type": "address"
        }
      ],
      "name": "paymentList",
      "outputs": [
        {
          "internalType": "uint256",
          "name": "transferAmount",
          "type": "uint256"
        },
        {
          "internalType": "address",
          "name": "recipient",
          "type": "address"
        }
      ],
      "stateMutability": "view",
      "type": "function"
    },
    {
      "inputs": [],
      "name": "returnTotalSupply",
      "outputs": [
        {
          "internalType": "uint256",
          "name": "",
          "type": "uint256"
        }
      ],
      "stateMutability": "view",
      "type": "function"
    },
    {
      "inputs": [],
      "name": "totalSupply",
      "outputs": [
        {
          "internalType": "uint256",
          "name": "",
          "type": "uint256"
        }
      ],
      "stateMutability": "view",
      "type": "function"
    },
    {
      "inputs": [
        {
          "internalType": "uint256",
          "name": "amount",
          "type": "uint256"
        },
        {
          "internalType": "address",
          "name": "recipient",
          "type": "address"
        }
      ],
      "name": "transfer",
      "outputs": [],
      "stateMutability": "nonpayable",
      "type": "function"
    }
  ],
  "bytecode": {
    "object": "0x608060405261271060005534801561001657600080fd5b50600180546001600160a01b0319163390811790915560008054918152600260205260409020556103888061004c6000396000f3fe608060405234801561001057600080fd5b506004361061007d5760003560e01c80638da5cb5b1161005b5780638da5cb5b146100c8578063b7760c8f146100f3578063c0ab760314610106578063ec135c461461010e57600080fd5b806318160ddd1461008257806327e235e31461009e5780633ab83cdf146100be575b600080fd5b61008b60005481565b6040519081526020015b60405180910390f35b61008b6100ac3660046102c2565b60026020526000908152604090205481565b6100c661015b565b005b6001546100db906001600160a01b031681565b6040516001600160a01b039091168152602001610095565b6100c66101013660046102e4565b6101c2565b60005461008b565b61013e61011c3660046102c2565b600360205260009081526040902080546001909101546001600160a01b031682565b604080519283526001600160a01b03909116602083015201610095565b6001546001600160a01b0316331461017257600080fd5b6103e86000808282546101859190610326565b90915550506000546040519081527fd8e439314980b46e75f83cab71ec60520c7a8f2f258aeb1b98c65cca3b430d0a9060200160405180910390a1565b33318211156101d057600080fd5b33600090815260026020526040812080548492906101ef90849061033f565b90915550506001600160a01b0381166000908152600260205260408120805484929061021c908490610326565b90915550506040805180820182528381526001600160a01b038381166020808401828152336000908152600383528690209451855551600190940180546001600160a01b03191694909316939093179091558251858152918201527f60a7357f2d5a3995ce8878f77ba2b0d4a229f25792cd62e233ead352a9080c53910160405180910390a15050565b80356001600160a01b03811681146102bd57600080fd5b919050565b6000602082840312156102d457600080fd5b6102dd826102a6565b9392505050565b600080604083850312156102f757600080fd5b82359150610307602084016102a6565b90509250929050565b634e487b7160e01b600052601160045260246000fd5b8082018082111561033957610339610310565b92915050565b818103818111156103395761033961031056fea26469706673582212203cd3bc0637193a1e9921ea48ab2d87344b823a9de7b8a1b3236cc7bf004fdb8d64736f6c63430008110033",
    "linkReferences": {}
  },
  "methodIdentifiers": {
    "balances(address)": "27e235e3",
    "changeTotalSupply()": "3ab83cdf",
    "owner()": "8da5cb5b",
    "paymentList(address)": "ec135c46",
    "returnTotalSupply()": "c0ab7603",
    "totalSupply()": "18160ddd",
    "transfer(uint256,address)": "b7760c8f"
  },
  "id": 0
}