{
  "_format": "hh-sol-artifact-1",
  "contractName": "VolcanoCoin",
  "sourceName": "contracts/VolcanoCoin.sol",
  "abi": [
    {
      "inputs": [],
      "stateMutability": "nonpayable",
      "type": "constructor"
    },
    {
      "anonymous": false,
      "inputs": [
        {
          "indexed": false,
          "internalType": "uint256",
          "name": "totalSupplyWasChanged",
          "type": "uint256"
        }
      ],
      "name": "totalSupplyChanged",
      "type": "event"
    },
    {
      "anonymous": false,
      "inputs": [
        {
          "indexed": false,
          "internalType": "uint256",
          "name": "amountTransferred",
          "type": "uint256"
        },
        {
          "indexed": false,
          "internalType": "address",
          "name": "recipient",
          "type": "address"
        }
      ],
      "name": "transferOccurred",
      "type": "event"
    },
    {
      "inputs": [
        {
          "internalType": "address",
          "name": "",
          "type": "address"
        }
      ],
      "name": "balances",
      "outputs": [
        {
          "internalType": "uint256",
          "name": "",
          "type": "uint256"
        }
      ],
      "stateMutability": "view",
      "type": "function"
    },
    {
      "inputs": [],
      "name": "changeTotalSupply",
      "outputs": [],
      "stateMutability": "nonpayable",
      "type": "function"
    },
    {
      "inputs": [],
      "name": "owner",
      "outputs": [
        {
          "internalType": "address payable",
          "name": "",
          "type": "address"
        }
      ],
      "stateMutability": "view",
      "type": "function"
    },
    {
      "inputs": [
        {
          "internalType": "address",
          "name": "",
          "type": "address"
        }
      ],
      "name": "paymentList",
      "outputs": [
        {
          "internalType": "uint256",
          "name": "transferAmount",
          "type": "uint256"
        },
        {
          "internalType": "address",
          "name": "recipient",
          "type": "address"
        }
      ],
      "stateMutability": "view",
      "type": "function"
    },
    {
      "inputs": [],
      "name": "returnTotalSupply",
      "outputs": [
        {
          "internalType": "uint256",
          "name": "",
          "type": "uint256"
        }
      ],
      "stateMutability": "view",
      "type": "function"
    },
    {
      "inputs": [],
      "name": "totalSupply",
      "outputs": [
        {
          "internalType": "uint256",
          "name": "",
          "type": "uint256"
        }
      ],
      "stateMutability": "view",
      "type": "function"
    },
    {
      "inputs": [
        {
          "internalType": "uint256",
          "name": "amount",
          "type": "uint256"
        },
        {
          "internalType": "address",
          "name": "recipient",
          "type": "address"
        }
      ],
      "name": "transfer",
      "outputs": [],
      "stateMutability": "nonpayable",
      "type": "function"
    }
  ],
  "bytecode": "0x608060405261271060005534801561001657600080fd5b5033600160006101000a81548173ffffffffffffffffffffffffffffffffffffffff021916908373ffffffffffffffffffffffffffffffffffffffff16021790555060005460026000600160009054906101000a900473ffffffffffffffffffffffffffffffffffffffff1673ffffffffffffffffffffffffffffffffffffffff1673ffffffffffffffffffffffffffffffffffffffff168152602001908152602001600020819055506106df806100cf6000396000f3fe608060405234801561001057600080fd5b506004361061007d5760003560e01c80638da5cb5b1161005b5780638da5cb5b146100da578063b7760c8f146100f8578063c0ab760314610114578063ec135c46146101325761007d565b806318160ddd1461008257806327e235e3146100a05780633ab83cdf146100d0575b600080fd5b61008a610163565b6040516100979190610487565b60405180910390f35b6100ba60048036038101906100b59190610505565b610169565b6040516100c79190610487565b60405180910390f35b6100d8610181565b005b6100e2610230565b6040516100ef9190610553565b60405180910390f35b610112600480360381019061010d919061059a565b610256565b005b61011c610421565b6040516101299190610487565b60405180910390f35b61014c60048036038101906101479190610505565b61042a565b60405161015a9291906105e9565b60405180910390f35b60005481565b60026020528060005260406000206000915090505481565b600160009054906101000a900473ffffffffffffffffffffffffffffffffffffffff1673ffffffffffffffffffffffffffffffffffffffff163373ffffffffffffffffffffffffffffffffffffffff16146101db57600080fd5b6103e86000808282546101ee9190610641565b925050819055507fd8e439314980b46e75f83cab71ec60520c7a8f2f258aeb1b98c65cca3b430d0a6000546040516102269190610487565b60405180910390a1565b600160009054906101000a900473ffffffffffffffffffffffffffffffffffffffff1681565b813373ffffffffffffffffffffffffffffffffffffffff1631101561027a57600080fd5b81600260003373ffffffffffffffffffffffffffffffffffffffff1673ffffffffffffffffffffffffffffffffffffffff16815260200190815260200160002060008282546102c99190610675565b9250508190555081600260008373ffffffffffffffffffffffffffffffffffffffff1673ffffffffffffffffffffffffffffffffffffffff168152602001908152602001600020600082825461031f9190610641565b9250508190555060405180604001604052808381526020018273ffffffffffffffffffffffffffffffffffffffff16815250600360003373ffffffffffffffffffffffffffffffffffffffff1673ffffffffffffffffffffffffffffffffffffffff1681526020019081526020016000206000820151816000015560208201518160010160006101000a81548173ffffffffffffffffffffffffffffffffffffffff021916908373ffffffffffffffffffffffffffffffffffffffff1602179055509050507f60a7357f2d5a3995ce8878f77ba2b0d4a229f25792cd62e233ead352a9080c5382826040516104159291906105e9565b60405180910390a15050565b60008054905090565b60036020528060005260406000206000915090508060000154908060010160009054906101000a900473ffffffffffffffffffffffffffffffffffffffff16905082565b6000819050919050565b6104818161046e565b82525050565b600060208201905061049c6000830184610478565b92915050565b600080fd5b600073ffffffffffffffffffffffffffffffffffffffff82169050919050565b60006104d2826104a7565b9050919050565b6104e2816104c7565b81146104ed57600080fd5b50565b6000813590506104ff816104d9565b92915050565b60006020828403121561051b5761051a6104a2565b5b6000610529848285016104f0565b91505092915050565b600061053d826104a7565b9050919050565b61054d81610532565b82525050565b60006020820190506105686000830184610544565b92915050565b6105778161046e565b811461058257600080fd5b50565b6000813590506105948161056e565b92915050565b600080604083850312156105b1576105b06104a2565b5b60006105bf85828601610585565b92505060206105d0858286016104f0565b9150509250929050565b6105e3816104c7565b82525050565b60006040820190506105fe6000830185610478565b61060b60208301846105da565b9392505050565b7f4e487b7100000000000000000000000000000000000000000000000000000000600052601160045260246000fd5b600061064c8261046e565b91506106578361046e565b925082820190508082111561066f5761066e610612565b5b92915050565b60006106808261046e565b915061068b8361046e565b92508282039050818111156106a3576106a2610612565b5b9291505056fea2646970667358221220a727393f8b9c164cdecdf9112fd12c02b2c7ccac5b5876ebb893d5bef286a12664736f6c63430008110033",
  "linkReferences": {},
  "deployedLinkReferences": {}
}